:020000040800F2
:10000000004001204D160008E5150008E71500081E
:10001000E9150008EB150008ED15000800000000C8
:10002000000000000000000000000000EF150008C4
:10003000F115000800000000F3150008F515000890
:1000400095160008951600089516000895160008E4
:1000500095160008951600089516000895160008D4
:1000600095160008951600089516000895160008C4
:1000700095160008951600089516000895160008B4
:1000800095160008951600089516000895160008A4
:100090009516000895160008951600089516000894
:1000A0009516000895160008951600089516000884
:1000B0009516000895160008951600089516000874
:1000C0009516000895160008951600089516000864
:1000D0009516000895160008951600089516000854
:1000E0009516000895160008951600089516000844
:1000F00095160008000000009516000895160008E7
:100100009516000895160008951600089516000823
:1001100095160008951600089516000800000000C6
:10012000951600080000000000000000000000001C
:0C01300000000000000000005FF808F173
:10013C0010B5054C237833B9044B13B10448AFF315
:10014C0000800123237010BD04000020000000007B
:10015C00E016000808B5034B1BB103490348AFF385
:10016C00008008BD0000000008000020E016000818
:10017C00084B10B5044618684FF47A73B0FBF3F0D3
:10018C0000F078F8002221464FF0FF3000F03EF8E6
:10019C00002010BD0000002008B5032000F024F85A
:1001AC000020FFF7E5FF01F07FF9002008BD0000FB
:1001BC00024A136801331360704700BF200000200F
:1001CC00014B1868704700BF2000002013B5019048
:1001DC00FFF7F6FF0446FFF7F3FF019B001B984265
:1001EC00F9D302B010BD0000074A0002D36800F436
:1001FC00E06023F4E0631B041B0C43F0BF6343F487
:10020C0000330343D360704700ED00E0174B30B56B
:10021C00DC68C4F30224C4F10703251D042B28BF9A
:10022C000423062D4FF0010598BF002405FA03F3B3
:10023C0003F1FF3388BF033C1940A14005FA04F4D5
:10024C00013C2240002842EA01024FEA0212AFBFF1
:10025C0000F16040064B00F00F00D2B2A5BFD2B245
:10026C0000F561401A5480F8002330BD00ED00E029
:10027C0014ED00E00138B0F1807F0AD2F021064B7A
:10028C00064A586082F823100020072298601A60F2
:10029C0070470120704700BF10E000E000ED00E067
:1002AC00044B04281A680CBF42F0040222F004022A
:1002BC001A60704710E000E0704708B5FFF7FCFFCC
:1002CC0008BD000000232DE9F74FD1F80080DFF8BE
:1002DC009491624A38FA03F402D103B0BDE8F08F6E
:1002EC004FF0010E0EFA03FE18EA0E0600F0A8807D
:1002FC004C6824F01007022F16D14FF00F0C4FEA68
:10030C00D30A00EB8A0A03F0070BDAF820504FEA05
:10031C008B0B0CFA0BFC25EA0C0C0D6905FA0BF592
:10032C0045EA0C05CAF8205003254FEA430A05FAA2
:10033C000AF5ED43D0F800B004F0030C0BEA050B02
:10034C000CFA0AFC013F4CEA0B0C012FC0F800C060
:10035C0011D8876807EA050BCF6807FA0AFC4CEA44
:10036C000B078760476827EA0E0EC4F300179F40FF
:10037C0047EA0E074760C7683D408F6807FA0AF7DF
:10038C003D43C560E5005BD54FF00F0CD9F820500C
:10039C0023F0030745F00105C9F82050D9F8205087
:1003AC0007F1804705F00105019507F5803703F04B
:1003BC00030E019D4FEA8E0ED7F808A00CFA0EF52D
:1003CC002AEA050C264DA8423CD005F58065A842CA
:1003DC003AD005F58065A84238D005F58065A8426D
:1003EC0036D005F58065A84234D005F58065A84265
:1003FC0032D005F58065A84214BF0725062505FAFD
:10040C000EF545EA0C05BD60F743156814F4803F02
:10041C000CBF3D4035431560556814F4003F0CBFCC
:10042C003D4035435560956814F4801F0CBF3D402A
:10043C0035439560D568A40254BF3D403543D56023
:10044C00013347E70025DAE70125D8E70225D6E78F
:10045C000325D4E70425D2E70525D0E700040140A5
:10046C0000000240003802400AB181617047090463
:10047C00FBE700001C4B82B09A6812F0F00F0CD016
:10048C0000221A490B6823F0010313430B60086820
:10049C0000F00100504002B070475A6A144912F043
:1004AC00805F0FD00A6802F4C052B2F5C05FE7D18A
:1004BC00B0F5404FE4D10D4A136843F004031360C8
:1004CC000122DEE75A6A42F080525A625A6A02F0FE
:1004DC0080520192019A0A68596A02F4C05221F0C2
:1004EC0080515962E1E700BF00380240003C0240F5
:1004FC000070004003682DE9F743D90704466AD41D
:10050C0023689A0700F1E6802368DE0655D5C14DB5
:10051C00AB6813F00C0F40F083814FF4007393FA27
:10052C00A3F2296893FAA3F3B3FA83F3012203F03D
:10053C001F0302FA03F30B4202D0A369002B6ED007
:10054C00B44D206A6B6803F46043984240F24A81D0
:10055C00FFF790FF002862D16B68226A23F4604396
:10056C0013436B6069684FF07F4393FAA3F3B3FABC
:10057C0083F2E369934021F07F4213436B604FF4A5
:10058C00604393FAA3F3B3FA83F0A24BF0219A6879
:10059C0091FAA1F1B1FA81F1236A02F0F002C340A1
:1005AC00581C4FF40043CA409B4983408A5C00208E
:1005BC00D3409A4A1360FFF7DBFD23681D0700F157
:1005CC0091812368580700F1D381626A002A40F0B8
:1005DC005782002024E08F4B9A6802F00C02082A04
:1005EC0007D09A6802F00C020C2A1CD19B68DB0322
:1005FC0019D54FF4003393FAA3F2864A116893FA93
:10060C00A3F3B3FA83F3012203F01F0302FA03F3FB
:10061C000B423FF475AF6368002B7FF471AF012080
:10062C0003B0BDE8F08363687A4D012B20D12B68B1
:10063C0043F480332B60FFF7C3FD4FF40035804645
:10064C000126744F95FAA5F33A6895FAA5F3B3FA17
:10065C0083F303F01F0306FA03F313427FF450AF46
:10066C00FFF7AEFDA0EB08006428EBD90320D7E719
:10067C0013BB2B684FF4003623F480332B602B68AC
:10068C00012723F480232B60FFF79AFD804696FA0E
:10069C00A6F32A6896FAA6F3B3FA83F303F01F03C2
:1006AC0007FA03F313423FF42BAFFFF789FDA0EBDE
:1006BC0008006428EBD9D9E7052B2B6803D143F448
:1006CC0080232B60B3E723F480332B602B6823F457
:1006DC008023AFE74F4B9A6802F00C02042A07D034
:1006EC009A6802F00C020C2A24D19B68DF0321D4F7
:1006FC00022393FAA3F2474A106893FAA3F3B3FACE
:10070C0083F3012103F01F0301FA03F303421346A1
:10071C0002D0E2688A4282D158684FF4F85292FAB9
:10072C00A2F2B2FA82F122698A4020F4F8510A430B
:10073C005A60E9E6E268012582B395FAA5F3B3FAAB
:10074C0083F303F1845303F58E139B001D60FFF7B5
:10075C0037FD022780462F4E97FAA7F3326897FA97
:10076C00A7F3B3FA83F303F01F0305FA03F3134261
:10077C000DD071684FF4F85393FAA3F3B3FA83F2E4
:10078C002369934021F4F85213437360BCE6FFF7DE
:10079C0017FDA0EB08000228DED967E795FAA5F350
:1007AC00B3FA83F303F1845303F58E139B001A60A1
:1007BC00FFF706FD02268046164F96FAA6F33A6816
:1007CC0096FAA6F3B3FA83F303F01F0305FA03F3C7
:1007DC0013423FF499AEFFF7F3FCA0EB080002289C
:1007EC00EBD943E76B6823F4604303436B606968A0
:1007FC004FF07F4393FAA3F3B3FA83F2E369934088
:10080C0021F07F4213436B60FFF734FE00283FF466
:10081C00B6AE04E7003802400F17000800000020B5
:10082C00A2694FF48073002A37D093FAA3F3B3FA7A
:10083C0083F3012603F1845303F58E139B001E6092
:10084C00FFF7BEFC4FF40077804697FAA7F32A68AF
:10085C0097FAA7F3B3FA83F303F01F0306FA03F333
:10086C00134213D06B68226A23F4604313436B600A
:10087C0069684FF07F4393FAA3F3B3FA83F2E36909
:10088C00934021F07F4213436B6096E6FFF798FC90
:10089C00A0EB08000228D8D9E8E693FAA3F3B3FA40
:1008AC0083F303F1845303F58E139B001A60FFF757
:1008BC0087FC4FF400768046012796FAA6F32A6847
:1008CC0096FAA6F3B3FA83F303F01F0307FA03F3C4
:1008DC0013423FF472AEFFF773FCA0EB0800022842
:1008EC00EBD9C3E662690125A94902B395FAA5F3D0
:1008FC00B3FA83F30B449B001D60FFF761FC0226E7
:10090C008046A44F96FAA6F37A6B96FAA6F3B3FA3E
:10091C0083F303F01F0305FA03F313427FF451AE84
:10092C00FFF74EFCA0EB08000228EBD99EE695FAE7
:10093C00A5F3B3FA83F30B449B001A60FFF740FC5A
:10094C0002268046934F96FAA6F37A6B96FAA6F394
:10095C00B3FA83F303F01F0305FA03F313423FF4D6
:10096C0030AEFFF72DFCA0EB08000228EBD97DE69A
:10097C00884B5A6AD10034D401265A6A42F080520C
:10098C005A625B6A03F080530193019B824D2B6882
:10099C00DA0528D5A3687F4D012B34D16B6B43F45A
:1009AC0080736B63FFF70CFC4FF4007581460127D5
:1009BC00DFF8E08195FAA5F3D8F8342095FAA5F381
:1009CC00B3FA83F303F01F0307FA03F313424ED079
:1009DC00002E3FF4FAAD6F4A536A23F080535362F2
:1009EC00F3E50026D2E72B6843F480732B60FFF706
:1009FC00E7FB07462B68DB05CCD4FFF7E1FBC01BFC
:100A0C006428F7D932E623BB6B6B4FF4007723F4E1
:100A1C0080736B636B6B4FF0010823F480636B6323
:100A2C00FFF7CEFB814697FAA7F36A6B97FAA7F309
:100A3C00B3FA83F303F01F0308FA03F31342C7D08E
:100A4C00FFF7BEFB41F28833A0EB09009842EAD9CC
:100A5C000CE6052B6B6B03D143F480636B639DE752
:100A6C0023F480736B636B6B23F4806399E7FFF75C
:100A7C00A7FB41F28833A0EB090098429AD9F5E51F
:100A8C00444DAB6803F00C030C2B3FF4C8AD022AA9
:100A9C004FF0807356D193FAA3F3B3FA83F3002289
:100AAC0003F1845303F58E139B001A60FFF788FB48
:100ABC002E4680464FF00077012597FAA7F332684F
:100ACC0097FAA7F3B3FA83F303F01F0305FA03F3C2
:100ADC00134230D1B268A36AE16A22F47D020B435F
:100AEC001343226B1343B3604FF0807393FAA3F359
:100AFC00B3FA83F303F1845303F58E139B001D604B
:100B0C00FFF75EFB4FF0007407460125214E94FA67
:100B1C00A4F3326894FAA4F3B3FA83F303F01F033B
:100B2C0005FA03F313427FF454ADFFF749FBC01BE6
:100B3C000228ECD99AE5FFF743FBA0EB080002284A
:100B4C00BBD993E593FAA3F3B3FA83F3002203F131
:100B5C00845303F58E139B001A60FFF731FB4FF0A3
:100B6C0000740746012694FAA4F32A6894FAA4F3B5
:100B7C00B3FA83F303F01F0306FA03F313423FF4B3
:100B8C0028ADFFF71DFBC01B0228ECD96EE500BF9A
:100B9C00A0C1911000380240007000401E4910B5F1
:100BAC008B6803F00C02082A05D00C2A05D0042A05
:100BBC0022D11A4810BD1A4810BD4FF4701292FA87
:100BCC00A2F2B2FA82F203F4701020FA02F2154883
:100BDC00845C4FF4400090FAA0F0B0FA80F203F479
:100BEC0040008B68D040DB034CBF0D4B0B4B0130EE
:100BFC006343B3FBF0F010BD48684FF4604393FAC5
:100C0C00A3F3B3FA83F300F46040D840431C4FF4D1
:100C1C000040984010BD00BF003802400024F40092
:100C2C0000366E01271700086A4B2DE9F0411A684F
:100C3C00064602F001028A420D4630D33268940710
:100C4C0040D4D00746D4634B1A6802F00102954297
:100C5C00C0F0AE803268510700F1B380130707D59E
:100C6C005D4A3169936823F4605343EAC10393608E
:100C7C00FFF794FF584BF0229B6892FAA2F2B2FA5B
:100C8C0082F203F0F003D340544AD35CD840544B67
:100C9C0018600020FFF76CFA0020BDE8F0810129F4
:100CAC0002BF1A6842F004021A601A6822F00102AC
:100CBC000A431A601B6803F001039942BED001205D
:100CCC00BDE8F0814449B0688B6823F0F00303431E
:100CDC008B60B6E772684049022A0FD14FF400339B
:100CEC0093FAA3F0086893FAA3F3B3FA83F3012100
:100CFC0003F01F0301FA03F3034213E0032A02D1AA
:100D0C004FF00073ECE7012A29D1022393FAA3F0E8
:100D1C00096893FAA3F3B3FA83F303F01F0302FAFF
:100D2C0003F30B42CBD02C4C41F28838A36823F050
:100D3C0003031A43A260FFF743FA73680746022BBA
:100D4C0010D1A36803F00C03082B3FF47CAFFFF722
:100D5C0037FAC01B4045F4D90320BDE8F0814FF4AD
:100D6C000073BDE7032B0BD1A36803F00C030C2B12
:100D7C003FF469AFFFF724FAC01B4045F4D9EBE709
:100D8C00012B10D1A36803F00C03042B3FF45BAFD1
:100D9C00FFF716FAC01B4045F4D9DDE7FFF710FA50
:100DAC00C01B4045D8D8A36813F00C0FF6D14AE706
:100DBC001A6822F001021A601B68DA073FF57FAF50
:100DCC0048E70549F0688B6823F4E06303438B60C4
:100DDC0044E700BF003C0240003802400F170008F7
:100DEC0000000020014B1868704700BF0000002075
:100DFC00084B4FF4E0629B6892FAA2F2B2FA82F2CC
:100E0C0003F4E063D340044AD35C044A1068D8402E
:100E1C00704700BF003802401F1700080000002078
:100E2C00084B4FF460529B6892FAA2F2B2FA82F22B
:100E3C0003F46053D340044AD35C044A1068D8408E
:100E4C00704700BF003802401F1700080000002048
:100E5C002DE9F04781460568C2682B69C16923F406
:100E6C00405313432B6183680069EA680343D9F844
:100E7C00140022F41642034322F00C020B431343DA
:100E8C00EB606B69D9F8182023F440731343B1F568
:100E9C00004F6B617E4B7FD19D424FF0190447D1BF
:100EAC00FFF7BEFF04FB00F3D9F804704FF06408A1
:100EBC007F00B3FBF7F3B3FBF8F31F01FFF7B0FFB1
:100ECC006043D9F804305B00B0FBF3F6FFF7A8FFE2
:100EDC006043D9F804305B00B0FBF3F3B3FBF8F3D9
:100EEC0008FB1363DB003233B3FBF8F35B0003F452
:100EFC00F876FFF795FF6043D9F804205200B0FB59
:100F0C00F2FAFFF78DFF6043D9F804305B00B0FBB9
:100F1C00F3F3B3FBF8F308FB13A3DB003233B3FB9F
:100F2C00F8F303F007033B443344AB60BDE8F087B0
:100F3C00FFF75EFF04FB00F3D9F804704FF0640870
:100F4C007F00B3FBF7F3B3FBF8F31F01FFF750FF80
:100F5C006043D9F804305B00B0FBF3F6FFF748FFB1
:100F6C006043D9F804305B00B0FBF3F3B3FBF8F348
:100F7C0008FB1363DB003233B3FBF8F35B0003F4C1
:100F8C00F876FFF735FF6043D9F804205200B0FB28
:100F9C00F2FAFFF72DFFB6E79D424FF0190443D14B
:100FAC00FFF73EFF04FB00F3D9F804604FF0640830
:100FBC00B600B3FBF6F3B3FBF8F31E01FFF730FFFB
:100FCC006043D9F804309B00B0FBF3F7FFF728FF20
:100FDC006043D9F804309B00B0FBF3F3B3FBF8F398
:100FEC0008FB13731B013233B3FBF8F303F0F00768
:100FFC00FFF716FF6043D9F804209200B0FBF2FA19
:10100C00FFF70EFF6043D9F804309B00B0FBF3F3FD
:10101C00B3FBF8F308FB13A31B013233B3FBF8F358
:10102C0003F00F033B437FE7FFF7E2FE04FB00F303
:10103C00D9F804604FF06408B600B3FBF6F3B3FBC9
:10104C00F8F31E01FFF7D4FE6043D9F804309B007F
:10105C00B0FBF3F7FFF7CCFE6043D9F804309B00EC
:10106C00B0FBF3F3B3FBF8F308FB13731B01323340
:10107C00B3FBF8F303F0F007FFF7BAFE6043D9F8BF
:10108C0004209200B0FBF2FAFFF7B2FEBAE700BF01
:10109C0000380140F8B504460E461546FFF790F8A7
:1010AC0007462268136836EA030301D10020F8BD15
:1010BC006B1CF7D0C5B923680320DA6822F08002D4
:1010CC00DA60DA6822F02002DA60DA6822F48072E0
:1010DC00DA605A6922F001025A61012384F839302E
:1010EC00002384F83830F8BDFFF76AF8C01B85423E
:1010FC00D7D2E0E710B5044630B390F8393003F09E
:10110C00FF021BB980F8382000F01EFA0223226877
:10111C0084F83930D368204623F40053D360FFF7AA
:10112C0097FE236800201A6922F490421A615A69CA
:10113C0022F02A025A61DA6842F40052DA60012382
:10114C00E06384F8393010BD012010BD70B50D4638
:10115C0090F839100446C9B201291E4601D0222943
:10116C004DD1002D49D0002A47D094F83830012BAE
:10117C0045D0012384F838300023E36394F83930E8
:10118C00A284222B0CBF32231223E28484F8393040
:10119C00E28C8AB9324640212046FFF77BFFC0B96A
:1011AC0094F83930322B0CBF2223012384F83930C8
:1011BC00002384F8383070BDA368013AB3F5805F22
:1011CC00E2844FF08001324620460DD1FFF762FFDA
:1011DC0008B1032070BD2B882268C3F30803536049
:1011EC00236943B90235D3E7FFF754FF0028F0D148
:1011FC0023682A785A600135CAE7012070BD0220A5
:10120C0070BD70B51E4690F839300446DBB2012B28
:10121C000D4601D0122B51D1002D4DD0002A4BD0B0
:10122C0094F83830012B49D0012384F8383000234E
:10123C00E36394F83930A285122B0CBF322322239E
:10124C00E28584F83930E38D5BB994F839300020AD
:10125C00322B0CBF1223012384F8380084F8393068
:10126C0070BD013BE385A3683246B3F5805F4FF058
:10127C002001204611D1FFF70DFF08B1032070BDEE
:10128C00236822695B6822B9C3F3080325F8023B83
:10129C00D9E7DBB225F8013BD5E7FFF7FBFE0028C9
:1012AC00ECD1236821696A1C5B6811B92B70154657
:1012BC00C9E703F07F03F9E7012070BD022070BD80
:1012CC0037B5164C164D4FF0FF33172215492046F3
:1012DC00FFF73CFF002202212846FFF7C5F86420E7
:1012EC00FEF774FF012202212846FFF7BDF84FF4E8
:1012FC00FA70FEF76BFF04224FF0FF330DEB020187
:10130C000948FFF77EFF04224FF0FF330DEB02017B
:10131C002046FFF71BFF03B030BD00BF6400002068
:10132C0000000240F8160008240000201B4A10B5EB
:10133C00136892B023F4C05343F40063136010237A
:10134C00059301234FF420420B93002305A80C9323
:10135C000D920E93FFF7CEF8014600B1FEE70F2376
:10136C00019002900390049068460093FFF75CFC98
:10137C00044600B1FEE7FFF735FD4FF47A73B0FB7E
:10138C00F3F0FEF777FF0420FEF78AFF2246214692
:10139C004FF0FF30FEF73AFF12B010BD0070004066
:1013AC0000B589B0FEF7F8FEFFF7C0FF364B4FF4DF
:1013BC000051DA69354842F00402DA61DA69002436
:1013CC0002F004020092009ADA69012542F001024F
:1013DC00DA61DA694FF4E13602F001020192019A06
:1013EC00DA6942F00202DA61DB69002203F00203DF
:1013FC000293029BFFF738F8002202212448FFF7E2
:10140C0033F8002208212348FFF72EF84FF400533D
:10141C0003A91E480393049505940694FEF752FF06
:10142C00022303A91A480393049505940694FEF726
:10143C0049FF082304950C25164803A9039305942A
:10144C000694FEF73FFF1448144B846080E8480074
:10145C00C460046145618461C461FFF74BFE00B157
:10146C00FEE70F4B0F4A9860D86018619861D861FD
:10147C00184683E844005D61FFF73CFE00B1FEE7CF
:10148C00FFF71EFFFCE700BF0038024000080240D7
:10149C00000002400004024064000020004C0040A8
:1014AC0024000020003801401FB5264B03205A6A47
:1014BC0042F000425A625A6A02F000420192019ACA
:1014CC001A6A42F001021A621A6A02F001020292CE
:1014DC00029A5A6A42F080525A625B6A03F0805355
:1014EC000393039BFEF780FE00226FF00B00114666
:1014FC00FEF78CFE00226FF00A001146FEF786FE06
:10150C0000226FF009001146FEF780FE00226FF0FA
:10151C0004001146FEF77AFE00226FF0030011461C
:10152C00FEF774FE00226FF001001146FEF76EFE0E
:10153C0000224FF0FF301146FEF768FE05B05DF853
:10154C0004FB00BF0038024000B503681D4A89B097
:10155C0093421BD11C4B1D485A6A03A942F400222A
:10156C005A625B6A03F400230193019B4FF44063BE
:10157C000393022304930123059303230693082367
:10158C000793FEF79FFE09B05DF804FB104A9342E7
:10159C00F9D10D4B03A91A6A0E4842F480421A6223
:1015AC001B6A03F480430293029B4FF4C0630393C2
:1015BC000223049301230593032306930723079324
:1015CC00DFE700BF004C004000380240000802403A
:1015DC0000380140000002407047FEE7FEE7FEE7DE
:1015EC00FEE770477047704708B5FEF7E1FDBDE8B0
:1015FC000840FEF762BE00000E4B1A6842F480727F
:10160C001A6099680C4A0A409A601A6822F088524B
:10161C0022F001121A601A6822F480221A609A6869
:10162C0022F47D029A600022DA604FF00062034BD4
:10163C009A607047003802400CC0FF8800ED00E053
:10164C00002103E00B4B5B58435004310A480B4B11
:10165C0042189A42F6D30A4A02E0002342F8043BAD
:10166C00084B9A42F9D3FFF7C7FF00F00FF8FFF7CA
:10167C0097FE704738170008000000200400002077
:10168C0004000020A4000020FEE7000070B5002537
:10169C000C4E0D4CA41BA410A54209D100F01AF855
:1016AC0000250A4E0A4CA41BA410A54205D170BDFE
:1016BC0056F8253098470135EEE756F8253098470F
:1016CC000135F2E730170008301700083017000812
:1016DC0034170008F8B500BFF8BC08BC9E4670472C
:0C16EC00F8B500BFF8BC08BC9E46704773
:1016F80077616974696E6720666F722064617461CE
:10170800202E2E2E200A00000000000000000001FC
:10171800020304060708090000000001020304038D
:081728000406080C1018203023
:04173000610100084B
:041734003D0100086B
:0417380068FF1F0027
:040000050800164D8C
:00000001FF
