:020000040800F2
:100000000040012075230008112300081323000875
:10001000152300081723000819230008000000001A
:100020000000000000000000000000005115000862
:100030001B23000800000000E11500081D23000834
:10004000BD230008BD230008BD230008BD23000810
:10005000BD230008BD230008BD230008BD23000800
:10006000BD230008BD230008BD230008BD230008F0
:10007000BD230008BD230008BD230008BD230008E0
:10008000BD230008BD230008BD230008BD230008D0
:10009000BD230008BD230008BD230008BD230008C0
:1000A000BD230008BD230008BD230008BD230008B0
:1000B000BD230008BD230008BD230008BD230008A0
:1000C000BD230008BD230008BD230008BD23000890
:1000D000BD230008BD230008BD230008BD23000880
:1000E000BD230008BD230008BD230008212300080C
:1000F000BD23000800000000BD230008BD23000848
:10010000BD230008BD230008BD230008BD2300084F
:10011000BD230008BD230008BD2300080000000027
:10012000BD230008000000000000000000000000E7
:0C01300000000000000000005FF808F173
:1001400010B5054C237833B9044B13B10448AFF311
:1001500000800123237010BD70000020000000000B
:10016000782C000808B5034B1BB103490348AFF3D3
:10017000008008BD0000000074000020782C0008FA
:10018000034613F8012B002AFBD1181A01387047D7
:1001900008B5032000F016F8002002F07DF802F008
:1001A00005F8002008BD0000024A136801331360FF
:1001B000704700BFE40D0020014B1868704700BF76
:1001C000E40D0020074A0002D36800F4E06023F445
:1001D000E0631B041B0C43F0BF6343F40033034391
:1001E000D360704700ED00E0174B30B5DC68C4F316
:1001F0000224C4F10703251D042B28BF0423062D68
:100200004FF0010598BF002405FA03F303F1FF3313
:1002100088BF033C1940A14005FA04F4013C224088
:10022000002842EA01024FEA0212AFBF00F160402B
:10023000064B00F00F00D2B2A5BFD2B200F561406C
:100240001A5480F8002330BD00ED00E014ED00E00A
:100250000123420900F01F0003FA00F0014B43F8AC
:100260002200704700E100E00138B0F1807F0AD23F
:10027000F021064B064A586082F82310002007221E
:1002800098601A6070470120704700BF10E000E0DE
:1002900000ED00E0044B04281A680CBF42F0040291
:1002A00022F004021A60704710E000E000232DE9FC
:1002B000F74FD1F80080DFF89491624A38FA03F4DE
:1002C00002D103B0BDE8F08F4FF0010E0EFA03FE2D
:1002D00018EA0E0600F0A8804C6824F01007022FE0
:1002E00016D14FF00F0C4FEAD30A00EB8A0A03F045
:1002F000070BDAF820504FEA8B0B0CFA0BFC25EABF
:100300000C0C0D6905FA0BF545EA0C05CAF82050EE
:1003100003254FEA430A05FA0AF5ED43D0F800B089
:1003200004F0030C0BEA050B0CFA0AFC013F4CEA43
:100330000B0C012FC0F800C011D8876807EA050B25
:10034000CF6807FA0AFC4CEA0B078760476827EA80
:100350000E0EC4F300179F4047EA0E074760C768B8
:100360003D408F6807FA0AF73D43C560E5005BD55D
:100370004FF00F0CD9F8205023F0030745F001058A
:10038000C9F82050D9F8205007F1804705F0010541
:10039000019507F5803703F0030E019D4FEA8E0E9D
:1003A000D7F808A00CFA0EF52AEA050C264DA8424B
:1003B0003CD005F58065A8423AD005F58065A84295
:1003C00038D005F58065A84236D005F58065A8428D
:1003D00034D005F58065A84232D005F58065A84285
:1003E00014BF0725062505FA0EF545EA0C05BD6084
:1003F000F743156814F4803F0CBF3D40354315604A
:10040000556814F4003F0CBF3D4035435560956876
:1004100014F4801F0CBF3D4035439560D568A4029D
:1004200054BF3D403543D560013347E70025DAE747
:100430000125D8E70225D6E70325D4E70425D2E72E
:100440000525D0E7000401400000024000380240CA
:100450000AB1816170470904FBE700001C4B82B0C0
:100460009A6812F0F00F0CD000221A490B6823F0A2
:10047000010313430B60086800F00100504002B014
:1004800070475A6A144912F0805F0FD00A6802F46C
:10049000C052B2F5C05FE7D1B0F5404FE4D10D4A8C
:1004A000136843F0040313600122DEE75A6A42F046
:1004B00080525A625A6A02F080520192019A0A6886
:1004C000596A02F4C05221F080515962E1E700BF3D
:1004D00000380240003C02400070004003682DE9F3
:1004E000F743D90704466AD423689A0700F1E680E7
:1004F0002368DE0655D5C14DAB6813F00C0F40F0F4
:1005000083814FF4007393FAA3F2296893FAA3F35B
:10051000B3FA83F3012203F01F0302FA03F30B4241
:1005200002D0A369002B6ED0B44D206A6B6803F42F
:100530006043984240F24A81FFF790FF002862D161
:100540006B68226A23F4604313436B6069684FF061
:100550007F4393FAA3F3B3FA83F2E369934021F064
:100560007F4213436B604FF4604393FAA3F3B3FAF3
:1005700083F0A24BF0219A6891FAA1F1B1FA81F1CE
:10058000236A02F0F002C340581C4FF40043CA40F3
:100590009B4983408A5C0020D3409A4A136001F053
:1005A0007BFE23681D0700F191812368580700F145
:1005B000D381626A002A40F05782002024E08F4BEA
:1005C0009A6802F00C02082A07D09A6802F00C021E
:1005D0000C2A1CD19B68DB0319D54FF4003393FA26
:1005E000A3F2864A116893FAA3F3B3FA83F30122C4
:1005F00003F01F0302FA03F30B423FF475AF636885
:10060000002B7FF471AF012003B0BDE8F083636875
:100610007A4D012B20D12B6843F480332B60FFF7F8
:10062000CBFD4FF4003580460126744F95FAA5F3B3
:100630003A6895FAA5F3B3FA83F303F01F0306FAB9
:1006400003F313427FF450AFFFF7B6FDA0EB0800B1
:100650006428EBD90320D7E713BB2B684FF400368F
:1006600023F480332B602B68012723F480232B6035
:10067000FFF7A2FD804696FAA6F32A6896FAA6F33B
:10068000B3FA83F303F01F0307FA03F313423FF4B3
:100690002BAFFFF791FDA0EB08006428EBD9D9E759
:1006A000052B2B6803D143F480232B60B3E723F49D
:1006B00080332B602B6823F48023AFE74F4B9A687D
:1006C00002F00C02042A07D09A6802F00C020C2AED
:1006D00024D19B68DF0321D4022393FAA3F2474A73
:1006E000106893FAA3F3B3FA83F3012103F01F0315
:1006F00001FA03F30342134602D0E2688A4282D130
:1007000058684FF4F85292FAA2F2B2FA82F12269D2
:100710008A4020F4F8510A435A60E9E6E26801256C
:1007200082B395FAA5F3B3FA83F303F1845303F587
:100730008E139B001D60FFF73FFD022780462F4E62
:1007400097FAA7F3326897FAA7F3B3FA83F303F0A3
:100750001F0305FA03F313420DD071684FF4F853E9
:1007600093FAA3F3B3FA83F22369934021F4F85286
:1007700013437360BCE6FFF71FFDA0EB08000228DF
:10078000DED967E795FAA5F3B3FA83F303F184534F
:1007900003F58E139B001A60FFF70EFD02268046BC
:1007A000164F96FAA6F33A6896FAA6F3B3FA83F3CD
:1007B00003F01F0305FA03F313423FF499AEFFF76A
:1007C000FBFCA0EB08000228EBD943E76B6823F49D
:1007D000604303436B6069684FF07F4393FAA3F370
:1007E000B3FA83F2E369934021F07F4213436B60D5
:1007F000FFF734FE00283FF4B6AE04E700380240AD
:100800000A2D000808000020A2694FF48073002A16
:1008100037D093FAA3F3B3FA83F3012603F1845399
:1008200003F58E139B001E60FFF7C6FC4FF40077A4
:10083000804697FAA7F32A6897FAA7F3B3FA83F3E7
:1008400003F01F0306FA03F3134213D06B68226A06
:1008500023F4604313436B6069684FF07F4393FA5E
:10086000A3F3B3FA83F2E369934021F07F42134389
:100870006B6096E6FFF7A0FCA0EB08000228D8D931
:10088000E8E693FAA3F3B3FA83F303F1845303F591
:100890008E139B001A60FFF78FFC4FF400768046A2
:1008A000012796FAA6F32A6896FAA6F3B3FA83F319
:1008B00003F01F0307FA03F313423FF472AEFFF78E
:1008C0007BFCA0EB08000228EBD9C3E66269012596
:1008D000A94902B395FAA5F3B3FA83F30B449B003D
:1008E0001D60FFF769FC02268046A44F96FAA6F326
:1008F0007A6B96FAA6F3B3FA83F303F01F0305FAB3
:1009000003F313427FF451AEFFF756FCA0EB08004F
:100910000228EBD99EE695FAA5F3B3FA83F30B44CC
:100920009B001A60FFF748FC02268046934F96FA18
:10093000A6F37A6B96FAA6F3B3FA83F303F01F03D8
:1009400005FA03F313423FF430AEFFF735FCA0EB9A
:1009500008000228EBD97DE6884B5A6AD10034D4CE
:1009600001265A6A42F080525A625B6A03F0805351
:100970000193019B824D2B68DA0528D5A3687F4D32
:10098000012B34D16B6B43F480736B63FFF714FC62
:100990004FF4007581460127DFF8E08195FAA5F351
:1009A000D8F8342095FAA5F3B3FA83F303F01F03C4
:1009B00007FA03F313424ED0002E3FF4FAAD6F4A0C
:1009C000536A23F080535362F3E50026D2E72B6885
:1009D00043F480732B60FFF7EFFB07462B68DB05C2
:1009E000CCD4FFF7E9FBC01B6428F7D932E623BB60
:1009F0006B6B4FF4007723F480736B636B6B4FF07A
:100A0000010823F480636B63FFF7D6FB814697FAF6
:100A1000A7F36A6B97FAA7F3B3FA83F303F01F0304
:100A200008FA03F31342C7D0FFF7C6FB41F288333D
:100A3000A0EB09009842EAD90CE6052B6B6B03D1B9
:100A400043F480636B639DE723F480736B636B6B8C
:100A500023F4806399E7FFF7AFFB41F28833A0EB03
:100A6000090098429AD9F5E5444DAB6803F00C03B0
:100A70000C2B3FF4C8AD022A4FF0807356D193FA85
:100A8000A3F3B3FA83F3002203F1845303F58E1327
:100A90009B001A60FFF790FB2E4680464FF00077D0
:100AA000012597FAA7F3326897FAA7F3B3FA83F30D
:100AB00003F01F0305FA03F3134230D1B268A36AAF
:100AC000E16A22F47D020B431343226B1343B360AC
:100AD0004FF0807393FAA3F3B3FA83F303F18453D3
:100AE00003F58E139B001D60FFF766FB4FF000744B
:100AF00007460125214E94FAA4F3326894FAA4F330
:100B0000B3FA83F303F01F0305FA03F313427FF4F0
:100B100054ADFFF751FBC01B0228ECD99AE5FFF753
:100B20004BFBA0EB08000228BBD993E593FAA3F393
:100B3000B3FA83F3002203F1845303F58E139B0071
:100B40001A60FFF739FB4FF000740746012694FA4C
:100B5000A4F32A6894FAA4F3B3FA83F303F01F030F
:100B600006FA03F313423FF428ADFFF725FBC01B41
:100B70000228ECD96EE500BFA0C1911000380240F8
:100B8000007000401E4910B58B6803F00C02082A63
:100B900005D00C2A05D0042A22D11A4810BD1A48C3
:100BA00010BD4FF4701292FAA2F2B2FA82F203F47C
:100BB000701020FA02F21548845C4FF4400090FA5D
:100BC000A0F0B0FA80F203F440008B68D040DB0361
:100BD0004CBF0D4B0B4B01306343B3FBF0F010BD2A
:100BE00048684FF4604393FAA3F3B3FA83F300F435
:100BF0006040D840431C4FF40040984010BD00BFF7
:100C0000003802400024F40000127A00222D00086F
:100C10006A4B2DE9F0411A68064602F001028A4249
:100C20000D4630D33268940740D4D00746D4634B86
:100C30001A6802F001029542C0F0AE803268510796
:100C400000F1B380130707D55D4A3169936823F437
:100C5000605343EAC1039360FFF794FF584BF022BF
:100C60009B6892FAA2F2B2FA82F203F0F003D34048
:100C7000544AD35CD840544B1860002001F00CFB60
:100C80000020BDE8F081012902BF1A6842F0040289
:100C90001A601A6822F001020A431A601B6803F006
:100CA00001039942BED00120BDE8F0814449B068FB
:100CB0008B6823F0F00303438B60B6E7726840490A
:100CC000022A0FD14FF4003393FAA3F0086893FA85
:100CD000A3F3B3FA83F3012103F01F0301FA03F333
:100CE000034213E0032A02D14FF00073ECE7012A1C
:100CF00029D1022393FAA3F0096893FAA3F3B3FA74
:100D000083F303F01F0302FA03F30B42CBD02C4C06
:100D100041F28838A36823F003031A43A260FFF767
:100D20004BFA73680746022B10D1A36803F00C033B
:100D3000082B3FF47CAFFFF73FFAC01B4045F4D9C6
:100D40000320BDE8F0814FF40073BDE7032B0BD106
:100D5000A36803F00C030C2B3FF469AFFFF72CFAE8
:100D6000C01B4045F4D9EBE7012B10D1A36803F079
:100D70000C03042B3FF45BAFFFF71EFAC01B40458A
:100D8000F4D9DDE7FFF718FAC01B4045D8D8A368AF
:100D900013F00C0FF6D14AE71A6822F001021A602C
:100DA0001B68DA073FF57FAF48E70549F0688B68B5
:100DB00023F4E06303438B6044E700BF003C024040
:100DC000003802400A2D000808000020014B186876
:100DD000704700BF08000020084B4FF4E0629B689A
:100DE00092FAA2F2B2FA82F203F4E063D340044A28
:100DF000D35C044A1068D840704700BF00380240F6
:100E00001A2D000808000020084B4FF460529B6820
:100E100092FAA2F2B2FA82F203F46053D340044A87
:100E2000D35C044A1068D840704700BF00380240C5
:100E30001A2D0008080000200F2303600B4B9A684E
:100E400002F0030242609A6802F0F00282609A683F
:100E500002F4E062C2609B68DB0803F4E0630361B4
:100E6000034B1B6803F001030B607047003802401E
:100E7000003C0240B0F1804F03680ED01C4A904203
:100E80000BD002F58062904207D002F5806290425A
:100E900003D002F57C42904216D14A6823F07003D9
:100EA000B0F1804F43EA020315D0114A904212D0AC
:100EB00002F5806290420ED002F5806290420AD024
:100EC00002F57C42904206D00A4A904203D002F5D5
:100ED0008062904203D1CA6823F4407313430360D5
:100EE0008B68C3620B68836201234361704700BF54
:100EF00000040040000C0140704710B50446A0B14A
:100F000090F8353003F0FF021BB980F83420FFF76A
:100F1000F3FF0223206884F83530211DFFF7AAFF74
:100F20000123002084F8353010BD012010BD036876
:100F30000020DA6842F00102DA601A6842F0010229
:100F40001A6070477047704770477047036810B564
:100F50001A69044691070ED5DA6892070BD56FF02F
:100F600002021A6101229B69027599075CD0FFF7A2
:100F7000EAFF0023237523681A69520710D5DA683F
:100F800050070DD56FF004021A6102229B69227589
:100F900013F4407F20464DD0FFF7D5FF0023237583
:100FA00023681A6911070FD5DA6812070CD56FF09C
:100FB00008021A610422DB6922759B0720463FD094
:100FC000FFF7C1FF0023237523681A69D00610D5E7
:100FD000DA68D1060DD56FF010021A610822DB69BC
:100FE000227513F4407F204630D0FFF7ACFF00237A
:100FF000237523681A69D20708D5DA68D00705D5A2
:101000006FF0010220461A6101F0C6F823681A69E0
:10101000510608D5DA68520605D56FF04002204621
:101020001A61FFF792FF10BDFFF78CFF2046FFF714
:101030008BFF9EE7FFF786FF2046FFF785FFADE7B2
:10104000FFF780FF2046FFF77FFFBBE7FFF77AFF40
:101050002046FFF779FFCAE72DE9F047814605688A
:10106000C2682B69C16923F4405313432B61836821
:101070000069EA680343D9F8140022F416420343D6
:1010800022F00C020B431343EB606B69D9F8182074
:1010900023F440731343B1F5004F6B617E4B7FD156
:1010A0009D424FF0190447D1FFF7AEFE04FB00F359
:1010B000D9F804704FF064087F00B3FBF7F3B3FB7B
:1010C000F8F31F01FFF7A0FE6043D9F804305B007E
:1010D000B0FBF3F6FFF798FE6043D9F804305B00ED
:1010E000B0FBF3F3B3FBF8F308FB1363DB0032331D
:1010F000B3FBF8F35B0003F4F876FFF785FE60437B
:10110000D9F804205200B0FBF2FAFFF77DFE6043ED
:10111000D9F804305B00B0FBF3F3B3FBF8F308FB42
:1011200013A3DB003233B3FBF8F303F007033B44B4
:101130003344AB60BDE8F087FFF74EFE04FB00F3DD
:10114000D9F804704FF064087F00B3FBF7F3B3FBEA
:10115000F8F31F01FFF740FE6043D9F804305B004D
:10116000B0FBF3F6FFF738FE6043D9F804305B00BC
:10117000B0FBF3F3B3FBF8F308FB1363DB0032338C
:10118000B3FBF8F35B0003F4F876FFF725FE60434A
:10119000D9F804205200B0FBF2FAFFF71DFEB6E7C3
:1011A0009D424FF0190443D1FFF72EFE04FB00F3DC
:1011B000D9F804604FF06408B600B3FBF6F3B3FB54
:1011C000F8F31E01FFF720FE6043D9F804309B00BE
:1011D000B0FBF3F7FFF718FE6043D9F804309B002B
:1011E000B0FBF3F3B3FBF8F308FB13731B013233CB
:1011F000B3FBF8F303F0F007FFF706FE6043D9F8FE
:1012000004209200B0FBF2FAFFF7FEFD6043D9F82C
:1012100004309B00B0FBF3F3B3FBF8F308FB13A31C
:101220001B013233B3FBF8F303F00F033B437FE7BB
:10123000FFF7D2FD04FB00F3D9F804604FF0640817
:10124000B600B3FBF6F3B3FBF8F31E01FFF7C4FDE2
:101250006043D9F804309B00B0FBF3F7FFF7BCFD07
:101260006043D9F804309B00B0FBF3F3B3FBF8F311
:1012700008FB13731B013233B3FBF8F303F0F007E1
:10128000FFF7AAFD6043D9F804209200B0FBF2FA00
:10129000FFF7A2FDBAE700BF00380140F8B50446E9
:1012A0000E461546FEF788FF07462268136836EAA1
:1012B000030301D10020F8BD6B1CF7D0C5B923682A
:1012C0000320DA6822F08002DA60DA6822F0200275
:1012D000DA60DA6822F48072DA605A6922F0010278
:1012E0005A61012384F83930002384F83830F8BD7E
:1012F000FEF762FFC01B8542D7D2E0E710B5044677
:1013000030B390F8393003F0FF021BB980F8382071
:1013100000F09CFF0223226884F83930D36820460D
:1013200023F40053D360FFF797FE236800201A6967
:1013300022F490421A615A6922F02A025A61DA684C
:1013400042F40052DA600123E06384F8393010BDC2
:10135000012010BD70B50D4690F839100446C9B291
:1013600001291E4601D022294DD1002D49D0002A45
:1013700047D094F83830012B45D0012384F8383019
:101380000023E36394F83930A284222B0CBF32236C
:101390001223E28484F83930E28C8AB93246402143
:1013A0002046FFF77BFFC0B994F83930322B0CBFD1
:1013B0002223012384F83930002384F8383070BDAB
:1013C000A368013AB3F5805FE2844FF080013246B2
:1013D00020460DD1FFF762FF08B1032070BD2B88B6
:1013E0002268C3F308035360236943B90235D3E786
:1013F000FFF754FF0028F0D123682A785A6001359E
:10140000CAE7012070BD022070BD08B500F090FB56
:10141000002008BD30B5B0F9084085B0842C08BF65
:101420000024028A18BF03340B4690E8220003A868
:1014300001900094284600F0ABFA012814BF002068
:10144000039805B030BD08B500F058FD012803D061
:10145000BDE8084000F0E6B808BD00F108034360AD
:101460004FF0FF32C3600361002382600360704766
:1014700000230361704743689A684B608A609A68EA
:1014800051609960036808610133036070470A681E
:1014900030B5531C0AD103695A684A6091608B6069
:1014A0005960036808610133036030BD00F108032F
:1014B0005C682568AA42EFD32346F9E74168826851
:1014C00003698A60826851605968884208BF5A601F
:1014D0000022026118680138186070470A4B1B68C7
:1014E000013308D04FF0500383F31188BFF36F8F9F
:1014F000BFF34F8FFEE74FF0500383F31188BFF324
:101500006F8FBFF34F8FFEE7000000200648006892
:10151000006880F3088862B661B6BFF34F8FBFF3EF
:101520006F8F00DF00BF000008ED00E04FF0807318
:1015300040F8043C054B21F0010140F8081C40F83C
:101540000C3C40F8202C4038704700BFDD140008E8
:10155000074B19680868B0E8F00F80F30988BFF3FB
:101560006F8F4FF0000080F311884EF00D0E704722
:10157000AC0C00204FF0500383F31188BFF36F8F42
:10158000BFF34F8F0A4A13680133012B13600DD14B
:10159000084B1B6813F0FF0F08D04FF0500383F384
:1015A0001188BFF36F8FBFF34F8FFEE7704700BF07
:1015B0000000002004ED00E0084A136843B94FF032
:1015C000500383F31188BFF36F8FBFF34F8FFEE794
:1015D000013B13600BB983F31188704700000020B2
:1015E000EFF30980BFF36F8F0D4B1A6820E9F00FFE
:1015F00010602DE908404FF0500080F3118800F092
:1016000043FC4FF0000080F31188BDE808401968E2
:101610000868B0E8F00F80F30988BFF36F8F704758
:10162000AC0C002008B54FF0500383F31188BFF3D2
:101630006F8FBFF34F8F00F0BFFA18B14FF0805299
:10164000024B1A60002383F3118808BD04ED00E00B
:101650004FF47A72054B1B68B3FBF2F3044A013B6B
:1016600013600722034B1A60704700BF0800002078
:1016700014E000E010E000E013B51F4B00211A78E1
:10168000D2B20192FF221A701B781C4ADBB28DF88D
:1016900003309DF8033003F0500313700722184BFA
:1016A0001A609DF80300541E00061CD401B11A6094
:1016B0001A68120202F4E0621A60019B0E4ADBB261
:1016C0001370104B1A6842F470021A601A6842F0E4
:1016D00070421A60FFF7BCFF00220B4B1A60FFF745
:1016E00015FFFFF7FBFE9DF8032001215200D2B247
:1016F0008DF803202246D4E700E400E08C000020AF
:101700009000002020ED00E00000002010B50F4BFD
:101710001A68824218D35C681919884201BF41686F
:10172000184609195960446801198A4207D10849C5
:1017300009688A421FBF51681268091941609842BE
:10174000026018BF186010BD1346E1E7A40C00202A
:10175000940000202DE9F041044600F025FA3E49AE
:101760003E4D0B680BBB3E4A56071DBFD01D20F0F7
:10177000070002F540634FF440631CBF02461B1A8A
:1017800000201344374E083B23F00703706032609B
:10179000586018600B60981A1360334B50601860E3
:1017A000324B18604FF000432B602F68274216D150
:1017B000002C40D004F1080358071CBF23F0070396
:1017C000083363B1294A16689046B34207D8254AC0
:1017D00015686868834204D809688D4207D10024DF
:1017E00029E02C68002CF7D02A462546F1E7296825
:1017F00014681160C21A102A0FD9E818410708D0DE
:101800004FF0500383F31188BFF36F8FBFF34F8FF7
:10181000FEE742606B60FFF779FF6B681249F61ACA
:101820001F4300230868C8F80060864238BF0E6076
:1018300008346F602B6000F051FA630708D04FF056
:10184000500383F31188BFF36F8FBFF34F8FFEE711
:101850002046BDE8F08100BF94000020980C0020D5
:1018600098000020A40C0020A00C00209C0C00205C
:1018700010B5044670B3184A50F8043C126813427D
:1018800008D14FF0500383F31188BFF36F8FBFF37C
:101890004F8FFEE750F8081C41B14FF0500383F31F
:1018A0001188BFF36F8FBFF34F8FFEE723EA020368
:1018B00040F8043C00F078F9084A54F8043C1168F8
:1018C000A4F108000B441360FFF720FFBDE81040AF
:1018D00000F004BA10BD00BF980C00209C0C002042
:1018E000064A13681968064B19B94FF0FF321A609F
:1018F00070471268D268D2685268F8E7B00C0020CE
:10190000880D0020F8B51B4B1B4E1D68044630683F
:101910000F460430FFF7D2FD334640B9012031684D
:10192000164EC96A3268884022EA00023260621CA0
:1019300007D137B1196812480431BDE8F840FFF704
:101940009ABD2C441A68A542546007D90D4A106804
:101950001968BDE8F8400431FFF799BD0A4A1068DC
:1019600019680431FFF793FD084B1A68944238BF99
:101970001C60F8BDD00D0020AC0C0020580D0020DC
:10198000A80D0020B40C0020B00C0020880D002011
:101990002DE9F84F4FEA820A804650460F46994695
:1019A0000B9EFFF7D7FE0546002800F096805420D6
:1019B000FFF7D0FE0446002800F08C80AAF1040A4C
:1019C000056355447B1E25F0070A00F134020F37EA
:1019D000597802F8011B13F8011F09B1BB42F7D176
:1019E0000A9D4FF0000B062D28BF0625271DE56236
:1019F0006564384684F843B0C4F848B0FFF738FD52
:101A0000C5F1070504F11800FFF732FDC4F84CB02A
:101A10002461A561646284F850B04A46414650464C
:101A2000FFF784FD206006B13460FFF7A3FD324B61
:101A3000324E1A68DFF8F08001321A603568002DE6
:101A40004ED134601B68012B1DD108EB0500143505
:101A5000FFF703FD8C2DF8D1DFF8D090284D4846D4
:101A6000FFF7FBFC2846FFF7F8FC2648FFF7F5FCDC
:101A70002548FFF7F2FC2548FFF7EFFC244BC3F89D
:101A80000090244B1D600125234A244913680868EF
:101A900001331360E26A05FA02F3034314200B607A
:101AA00000FB02803946FFF7E6FCFFF785FD1C4B83
:101AB0001B6863B13368DA6AE36A9A4207D24FF06F
:101AC0008052184B1A60BFF34F8FBFF36F8F2846B9
:101AD000BDE8F88F2846FFF7CBFE4FF0FF35F6E75D
:101AE0000F4B1B68002BCED13368DA6AE36A9A4247
:101AF00098BF3460C7E700BF440D0020AC0C002045
:101B0000700D0020900D0020BC0D0020A80D0020BD
:101B1000B00C0020B40C0020540D0020580D002003
:101B2000A40D002004ED00E0B80C00205C0D0020A6
:101B300013B50024164B00940193802223461549C7
:101B40001548FFF725FF012814D14FF0500383F308
:101B50001188BFF36F8FBFF34F8F4FF0FF320F4BE2
:101B60001A600F4B18600F4B1C6002B0BDE81040AC
:101B7000FFF782BD013008D14FF0500383F3118885
:101B8000BFF36F8FBFF34F8FFEE702B010BD00BFF2
:101B9000840D0020B82C0008151E0008880D0020B8
:101BA000A40D0020D00D0020024A136801331360F9
:101BB000704700BF500D00202DE9F84F3C4B1B68CB
:101BC000002B53D13B4B1C6801341C60BCB93A4B11
:101BD0001A68126842B14FF0500383F31188BFF3C3
:101BE0006F8FBFF34F8FFEE7344A19681068186093
:101BF0001160334A136801331360FFF771FE314DF2
:101C00004FF0000B2B68304F9C423ED3DFF8A8808A
:101C1000DFF8C490D8F80020126872BB4FF0FF3292
:101C20002A6032E006F1040A5046FFF747FCB16A29
:101C300019B106F11800FFF741FC01224FF0140E14
:101C4000F06AD9F8003002FA00F119431F4BC9F8C5
:101C500000100EFB00305146FFF70DFC3868F16AAA
:101C6000C26A914228BF4FF0010BD3E7184A4FF0E8
:101C7000000B13680133136011E0D8F80020D2681C
:101C8000D66871688C42CDD229603A680F4BD16A10
:101C900014224A439A58022A28BF4FF0010B0D4ADA
:101CA0001268002A18BF4FF0010B5846BDE8F88FA4
:101CB000500D0020D00D0020B00C0020B40C0020EE
:101CC0008C0D0020880D0020AC0C0020B80C0020EA
:101CD0004C0D0020D40D0020580D00202DE9F843B4
:101CE000314C236843B94FF0500383F31188BFF39D
:101CF0006F8FBFF34F8FFEE7FFF73CFC2368013B7C
:101D0000236024682CB10024FFF756FC2046BDE870
:101D1000F883264B1B68002BF5D0DFF8A890244FE2
:101D2000DFF8A480D9F80030E3B90CB1FFF7D8FD93
:101D3000204D2C6844B101271F4EFFF73DFF00B135
:101D40003760013CF9D12C601B4B1B68002BDAD0AB
:101D50004FF08052194B1A60BFF34F8FBFF36F8F54
:101D60000124D1E7D9F80C300125DC68261D04F1E7
:101D70001800FFF7A3FB3046FFF7A0FB1420E26A30
:101D8000396805FA02F30B4300FB028031463B60E1
:101D9000FFF771FB0A4BE26A1B68DB6A9A4224BFB9
:101DA000054B1D60BEE700BF500D0020440D002014
:101DB000580D00204C0D0020D40D002004ED00E053
:101DC000AC0C0020900D0020B80C002008B540B9E4
:101DD0004FF080520D4B1A60BFF34F8FBFF36F8FE0
:101DE00008BD0B4B196841B14FF0500383F31188C4
:101DF000BFF36F8FBFF34F8FFEE7FFF7D5FEFFF7FF
:101E000081FDFFF76BFF0028E2D008BD04ED00E084
:101E1000500D002008B5174E174C236863B9174BB7
:101E20001B68012BF8D94FF08052154B1A60BFF395
:101E30004F8FBFF36F8FEFE7FFF7B6FE3568FFF701
:101E40004DFF002DE9D0FFF795FBF368DD68281DF5
:101E5000FFF734FB0B4A1368013B13602368013B17
:101E60002360FFF7A9FB286BFFF702FD2846FFF769
:101E7000FFFCD2E7BC0D0020480D0020B80C00206C
:101E800004ED00E0440D0020174B10B51A68174B05
:101E900012B101221A6010BD1A60154B1B68B3FA0B
:101EA00083F31422DBB2C3F11F035A4311498C5848
:101EB000881844B94FF0500383F31188BFF36F8F34
:101EC000BFF34F8FFEE74468083264680A449442C7
:101ED00008BF6268446008BF4260142202FB03131B
:101EE0005B68DA68044BD5E7500D0020D40D002064
:101EF000580D0020B80C0020AC0C0020054B1B68CE
:101F000033B1054B1B68002B0CBF0220002070472B
:101F100001207047A40D0020500D002008B5024C90
:101F20002068FFF753FFFBE70400002008B5FFF728
:101F3000F5FF00000FB400B5B5B036AA52F8041B87
:101F400002A8019200F084FA002802A80DDDFEF735
:101F500017F94FF0FF3382B202A90748FFF7FAF9E9
:101F600035B05DF804EB04B07047FEF709F94FF0A7
:101F7000FF3382B20149F0E7F00D0020D42C0008B5
:101F80000021F8B50C4F0D4D38460D4C4E1CFFF797
:101F9000D1FF002202212846FEF75AFA2068FFF7F7
:101FA00015FF022101222846FEF752FA2068FFF7AA
:101FB0000DFF3146E8E700BFBD2C000800000240DD
:101FC000040000201E4A30B5136893B023F4C053B8
:101FD00043F400631360022305930E9300230F93D1
:101FE0004FF400230125102210934FF4000305A89D
:101FF000089509921193FEF771FA00B1FEE70323E9
:102000000F2402900390049029466846009401939F
:10201000FEF7FEFD054600B1FEE7FEF7D7FE4FF4E2
:102020007A73B0FBF3F0FEF71FF90420FEF732F9E4
:102030002A4621464FF0FF30FEF7D6F813B030BDE8
:102040000070004080B590B0FEF7A2F8FFF7BAFF2D
:10205000464B2021DA69464842F00402DA61DA6927
:10206000002402F004020292029ADA69012742F087
:102070002002DA61DA690C2602F020020392039A48
:10208000DA69022542F00102DA61DA6902F001023E
:102090000492049ADA6942F00202DA61DB690022F2
:1020A00003F002030593059BFEF7D2F900222221DB
:1020B0002F48FEF7CDF94FF400530B932D4B0BA98E
:1020C0002D480C930D94FEF7F1F822230BA9284814
:1020D0000B930C970D940E94FEF7E8F803230E93E0
:1020E00007230BA922480B960F930C950D94FEF72E
:1020F000DDF820230BA91E480B930C970D940E942A
:10210000FEF7D4F84FF4E1331C481D4A466180E8DD
:102110000C008460C46004618461C461FFF7EEF860
:10212000064600B1FEE7174C03468DE860008022AA
:102130001549164806ADFFF72BFC0FCC0FC554F818
:10214000043B314606A82B60FFF764F9104B0BAD3A
:1021500018600FCC0FC5236831460BA82B60FFF722
:1021600059F90C4B1860FFF750F9FEE700380240B0
:10217000000002400000111000080240F00D002095
:10218000004C0040902C0008EB2C0008811F000838
:10219000E80D0020EC0D00200268034B9A4201D1AB
:1021A000FEF702B8704700BF001000401FB5264B75
:1021B00003205A6A42F000425A625A6A02F0004210
:1021C0000192019A1A6A42F001021A621A6A02F036
:1021D00001020292029A5A6A42F080525A625B6A83
:1021E00003F080530393039BFDF7ECFF00226FF095
:1021F0000B001146FDF7F8FF00226FF00A001146B0
:10220000FDF7F2FF00226FF009001146FDF7ECFF29
:1022100000226FF004001146FDF7E6FF00226FF088
:1022200003001146FDF7E0FF00220F216FF00100CF
:10223000FDF7DAFF00220F214FF0FF30FDF7D4FF4A
:1022400005B05DF804FB00BF003802407FB50268AE
:102250000F4B9A4219D103F5F6335A6A01A942F499
:1022600000225A625B6A0B4803F400230093009B30
:102270004FF440630193022302930123039303234A
:10228000049308230593FEF711F807B05DF804FBEB
:10229000004C00400008024010B5014688B0002202
:1022A0002B20FDF7A1FF2B20FDF7D2FF144B01A936
:1022B0005A6A03A842F010025A625B6A114C03F09A
:1022C00010030293029BFEF7B7FDFEF785FD0E4B50
:1022D000236040F2E733E3600C4BB0FBF3F00023E4
:1022E0000138606020462361A360FEF706FE20B936
:1022F0002046FEF71CFE08B010BD0120FBE700BF22
:1023000000380240300E00200010004040420F0014
:102310007047FEE7FEE7FEE7FEE77047FFF793B87A
:102320000148FEF713BE00BF300E00200E4B1A68A6
:1023300042F480721A6099680C4A0A409A601A68DE
:1023400022F0885222F001121A601A6822F48022C8
:102350001A609A6822F47D029A600022DA604FF0D7
:102360000062034B9A607047003802400CC0FF883F
:1023700000ED00E0002103E00B4B5B5843500431BB
:102380000A480B4B42189A42F6D30A4A02E000234D
:1023900042F8043B084B9A42F9D3FFF7C7FF00F01D
:1023A0000FF8FFF74FFE7047682D0008000000206F
:1023B00070000020700000206C0E0020FEE700007E
:1023C00070B500250C4E0D4CA41BA410A54209D1DC
:1023D00000F052FC00250A4E0A4CA41BA410A54292
:1023E00005D170BD56F8253098470135EEE756F80F
:1023F000253098470135F2E7602D0008602D000870
:10240000602D0008642D000810B5431E0A44914257
:1024100000D110BD11F8014B03F8014FF7E710B5DB
:102420009AB0009104916FF00041029105914FF62E
:10243000FF714FF40274ADF80E106946ADF80C4010
:1024400000F06CF80022009B1A701AB010BD00005A
:1024500013460A46014602480068FFF7E0BF00BF86
:102460000C0000202DE9F0478E6882469E420C4603
:102470009146984635D88A8912F4906F31D002235C
:10248000256809696F1A656905EB450595FBF3F544
:1024900008F101033B449D4238BF1D46530531D529
:1024A000294600F03BFB064650B90C23CAF8003021
:1024B000A3894FF0FF3043F04003A381BDE8F087CC
:1024C0003A462169FFF7A0FFA38923F4906343F004
:1024D0008003A38126613E44266046466561ED1B6C
:1024E000A560464528BF464649463246206800F06A
:1024F000AFFAA36800209B1BA36023681E442660DC
:10250000BDE8F0872A4600F067FB06460028E1D1C7
:102510002169504600F0B6FAC7E700002DE9F04FF8
:102520009DB003938B8980461C060D4616460FD539
:102530000B696BB9402100F0F1FA2860286128B9D5
:102540000C23C8F800304FF0FF30C4E040236B612B
:102550000023099320238DF8293030234FF0010BFD
:102560008DF82A3037463C4614F8013B002B3CD10D
:10257000B7EB060A0BD05346324629464046FFF7D2
:1025800071FF013000F0A280099B534409933B780E
:10259000002B00F09B8000234FF0FF320493079341
:1025A000059206938DF853301A93052221785048EE
:1025B00000F040FA671C049BD8B9D90644BF20221A
:1025C0008DF853201A0744BF2B228DF85320227810
:1025D0002A2A16D000210A20079A27463B78013480
:1025E000303B092B50D9C9B111E0252BC0D027466B
:1025F000B9E73F4A3C46801A0BFA00F018430490B2
:10260000D3E7039A111D12680391002A01DB079298
:1026100004E0524243F00203079204933B782E2BCE
:102620000DD17B78791C2A2B32D1039B02371A1DDE
:102630001B680392002BB8BF4FF0FF3305932D4C5E
:1026400003223978204600F0F5F938B14023001B09
:1026500003FA00F0049B0137034304933978062200
:1026600025487E1C8DF8281000F0E4F9002835D0AC
:10267000224BFBB9039B073323F007030833039373
:10268000099B4B4409936DE700FB02320121A4E74B
:1026900000230A24184605930F463A780131303A50
:1026A000092A03D9002BCAD00590C8E704FB0020F3
:1026B0000123F1E703AB00932A46114B04A94046DE
:1026C000AFF30080B0F1FF3F8146D9D1AB895B0603
:1026D0003FF539AF09981DB0BDE8F08F03AB00930B
:1026E0002A46074B04A9404600F084F8EAE700BFF9
:1026F0002B2D0008312D0008352D000800000000AA
:10270000652400082DE9F04791461F468A680B6949
:1027100006469342B8BF1346C9F8003091F84320EB
:102720000C46DDF8208012B10133C9F8003023686F
:10273000990642BFD9F800300233C9F80030256845
:1027400015F0060507D104F1190AE368D9F800204D
:102750009B1A9D422ADB94F843302268003318BF4D
:10276000012392062FD404F1430239463046C04774
:10277000013022D02368E56803F00603042B18BF5C
:102780000025D9F800204FF0000908BFAD1AA36852
:10279000226908BF25EAE5759342C4BF9B1AED186C
:1027A0001A344D451BD10020BDE8F0870123524665
:1027B00039463046C047013003D14FF0FF30BDE805
:1027C000F0870135C1E73020E11881F843005A1C39
:1027D00094F845102244023382F84310C3E70123E2
:1027E000224639463046C0470130E6D009F101099A
:1027F000D7E700002DE9F04317460A7E85B06E2A20
:10280000984606460C460C9B01F1430E00F0BC8036
:102810001AD8632A2ED00AD8002A00F0C880582A75
:1028200000F08A8004F1420584F842202AE0642AFC
:1028300001D0692AF6D121681A6811F0800F23D0DF
:10284000111D1960136827E0732A00F0B48008D8BE
:102850006F2A2AD0702AE5D10A6842F020020A6065
:1028600003E0752A21D0782ADCD178226F4984F8D8
:10287000452064E01A6801F14205111D19601368D2
:1028800084F842300123A3E011F0400F02F104016B
:102890001960D7D0B2F90030002B03DA2D225B4249
:1028A00084F8432062490A2217E02068196810F072
:1028B000800F03D0081D18600B6806E010F0400F71
:1028C00001F104001860F7D00B886F2A14BF0A22A8
:1028D00008225749002084F843006568002DA56050
:1028E000C0F29C80206820F004002060002B3FD1C3
:1028F000002D40F095807546082A0BD12368DA0731
:1029000008D5236962689A42DEBF302305F8013C8E
:1029100005F1FF35AEEB05032361CDF800803B46A2
:1029200003AA21463046FFF7EDFE013055D14FF0A6
:10293000FF3005B0BDE8F08381F845203C492268AE
:10294000186812F0800F00F104051D6001D00368C3
:1029500002E05506FBD50388D00744BF42F02002B1
:1029600022601BB9226822F0200222601022B1E707
:102970007546B3FBF2F002FB1033CB5C05F8013D6A
:1029800003460028F5D1B7E708681A6810F0800FF1
:10299000496904D0101D18601368196007E010F031
:1029A000400F02F1040018601368F6D0198000236C
:1029B00075462361B1E71A68111D19601568002179
:1029C0006268284600F036F808B1401B6060636812
:1029D0002361002384F843309FE723692A46394660
:1029E0003046C0470130A2D023689B0707D5002599
:1029F00004F11909E368039A9B1A9D4205DBE0681C
:102A0000039B9842B8BF184693E701234A463946CC
:102A10003046C04701308AD00135EBE7002BA7D103
:102A20000B7804F1420584F8423065E74D2D00082B
:102A30003C2D000810B5C9B202449042034601D1B2
:102A4000002010BD1C7801308C42F6D1184610BD14
:102A5000884210B501EB020303D8421E99420CD103
:102A600010BD9842F9D28118D21AD34200D110BDBC
:102A700013F8014D01F8014DF7E711F8014B02F889
:102A8000014FEBE738B50546002943D051F8043C27
:102A90000C1F002BB8BFE41800F0D4F81E4A1368CE
:102AA000104633B9636014602846BDE8384000F032
:102AB000CAB8A3420BD921686218934201BF1A68B1
:102AC0005B685218226063600460EDE713465A6841
:102AD0000AB1A242FAD919685818A0420BD120684D
:102AE0000144581882421960DED1106852680144CE
:102AF00019605A60D8E702D90C232B60D4E720680C
:102B000021188A4201BF1168526809182160626069
:102B10005C60C9E738BD00BFD80D002070B5CD1C82
:102B200025F0030508350C2D38BF0C25002D064671
:102B300001DBA94203D90C233360002070BD00F0F3
:102B400081F8234A1468214691B9224C23681BB9A5
:102B5000304600F067F820602946304600F062F801
:102B6000431C26D10C233046336000F06CF8E4E7B8
:102B70000B685B1B1AD40B2B0FD90B60CC18CD50F4
:102B8000304600F060F804F10B00231D20F0070030
:102B9000C31A1BD05A42E25070BD8C420BBF63680F
:102BA0004B681360636018BF0C46E9E70C46496840
:102BB000CAE7C41C24F00304A04205D0211A304601
:102BC00000F030F80130CDD02560D9E770BD00BFEE
:102BD000D80D0020DC0D0020F8B5074614460E463F
:102BE00021B91146BDE8F840FFF798BF22B9FFF7B9
:102BF00049FF25462846F8BD00F026F884420FD943
:102C000021463846FFF78AFF05460028F2D03146B4
:102C10002246FFF7F9FB31463846FFF733FFE9E775
:102C20003546E7E738B50023054C054608462360DE
:102C300000F014F8431C02D1236803B12B6038BDA7
:102C4000680E00207047704751F8040C0028A0F16E
:102C50000400BCBF0B58C01870470000044B02466C
:102C6000196809B903491960186802441A60704765
:102C7000E00D00206C0E0020F8B500BFF8BC08BCC9
:102C80009E467047F8B500BFF8BC08BC9E4670472A
:102C9000FE2C00082D1F00080000000000000000AE
:102CA00080000000F42C00081D1F00080000000038
:102CB000000000008000000049444C45004C656461
:102CC000206F6E20666F72206C6F6F70203A202527
:102CD00064200A006661696C656420746F20627507
:102CE000696C6420737472696E67006C65645F67F9
:102CF0006174650073656E645F646174610064652E
:102D00006661756C745461736B0000000000000014
:102D10000000010203040607080900000000010288
:102D20000304030406080C10182030232D302B2038
:102D300000686C4C006566674546470030313233A9
:102D40003435363738394142434445460030313214
:102D500033343536373839616263646566000000A4
:042D60006501000801
:042D64004101000821
:102D6800AAAAAAAAF401000068FF1F001000002008
:102D7800000000000000000000000000000000004B
:102D8800000000000000000000000000000000003B
:102D9800000000000000000000000000000000002B
:102DA800000000000000000000000000000000001B
:102DB800000000000000000000000000000000000B
:102DC80000000000000000000000000000000000FB
:040000050800237557
:00000001FF
